:020000041000EA
:1000000000B5324B212058609868022188439860DF
:10001000D860186158612E4B002199600221596106
:100020000121F02299502B49196001219960352056
:1000300000F044F80222904214D00621196600F024
:1000400034F8196E01211966002018661A6600F04E
:100050002CF8196E196E196E052000F02FF8012189
:100060000842F9D1002199601B49196000215960AB
:100070001A491B48016001219960EB211966A021F2
:10008000196600F012F800219960164914480160C1
:100090000121996001BC002800D000471248134993
:1000A000086003C880F30888084703B5996A0420EC
:1000B0000142FBD001200142F8D103BD02B5186610
:1000C0001866FFF7F2FF186E186E02BD00000240BE
:1000D000000000180000070000035F00212200005C
:1000E000F4000018222000A00001001008ED00E03C
:1000F00000000000000000000000000074B24E7A12
:1001000000200420F7010010C3010010C5010010F9
:10011000C1010010C1010010C1010010C101001097
:10012000C1010010C1010010C1010010C701001081
:10013000C1010010C1010010C9010010CB01001065
:10014000CD010010CD010010CD010010CD01001037
:10015000CD010010CD010010CD010010CD01001027
:10016000CD010010CD010010CD010010CD01001017
:10017000CD010010CD010010CD010010CD01001007
:10018000CD010010CD010010CD010010CD010010F7
:10019000CD010010CD010010CD010010CD010010E7
:1001A000CD010010CD010010CD010010CD010010D7
:1001B000CD010010CD010010CD010010CD010010C7
:1001C00000BE00BE00BE00BE00BE00BE00F04BF888
:1001D000103800BEF2EB8871702000108C200010E7
:1001E0003402001090A31AE700202149086006C8D5
:1001F00081F3088810471F48006800282FD10DA4FC
:100200000ECC002902D000F012F8F9E71A491B4A77
:10021000002000E001C19142FCD1194988471949E9
:1002200088471949884700BEFDE701C901C29A42C3
:10023000FBD370478C200010C00000205C0600201B
:1002400028260010000004200000042028260010AA
:1002500000100420001004200000000070470B482C
:1002600001F07AFB0047EFF30580C0B27047000051
:1002700008ED00E0000000D0600600202C0A0020FD
:10028000491400106903001035150010575600007E
:1002900006005250ABB360532420001006005250A9
:1002A000861C030234200010060052505422A29DE6
:1002B0003820001005005250DE65F4682826001032
:1002C000F8B5C046044B10B5002B03D003490448D1
:1002D00000E000BF10BDC04600000000E80900209B
:1002E000C81F0010F8B505000E1C042100F08AF8A4
:1002F00000222B075B0F9C00E418144BA400E318AA
:100300001A609A60DA60124A01271A618022D200CC
:100310005A601F600F4B10499C46301C644401F02A
:10032000F8FB0E4901F009FC01F00EFC80B22F42EF
:1003300009D00B4A0004236843401A4080235B0124
:1003400023431A60F8BD074AF5E7C04600000540A0
:10035000969800000C00054000409C4600AE1447F3
:100360000000FFFFFFFF0000F0B5C646FA271E4C55
:1003700000B5211C0920FFF7B5FFFF00211C01205B
:10038000FFF7B0FF380000F0D9FC184A184C90462F
:100390002368184E1B0C1B0413603368164D1B0C8E
:1003A0001B0438002B6000F0C9FC42462368134C44
:1003B000380063401B0C1B041360336863401B0C44
:1003C0001B042B6000F0BAFC32680D4B0020534038
:1003D0001B0C1B042B6033685C40240C24042C6031
:1003E00080BCB846F0BDC0460000FA445C10054031
:1003F0005C0005400C0005400C10054000006F0734
:100400000000DE0E094A10B5944640248300634480
:100410001A68C000624080341440802252011343A5
:100420001C60034B9C466044416010BD04C0014009
:100430000040014070B5EFF3108C72B60D4D2B6883
:10044000002BFCD0BFF35F8F0724CB08C618C05C1D
:1004500001230C40A3401C000440034207D1184371
:100460003070BFF35F8F2C608CF3108870BD10006C
:1004700001F062F82C0100D0024B18688007C00F11
:100480007047C04600C006400021044B044ABFF339
:100490005F8F02C39342FAD17047C046000100D07B
:1004A000800100D0044A1078431CDBB2172B00D91E
:1004B000102313707047C04674010020012383404D
:1004C000002904D0034A1360034A13607047034AAB
:1004D0001360FBE780E200E000E100E080E100E083
:1004E000024B10309B688000C058704700ED00E060
:1004F00070B50D00EFF3108672B60F4A1368002B2B
:10050000FCD0BFF35F8F0D4B10309B6884001B59EC
:100510000B4A934203D09D4201D001F025F8074BCE
:100520009B681D51BFF35F8FBFF35F8F0022024BAB
:100530001A6086F3108870BD240100D000ED00E041
:10054000CD010010F0B5DE4657464E464546E0B5B3
:100550000C0083B0EFF3108A72B6604A1368002B68
:10056000FCD0BFF35F8F1022914681444A465C4B1A
:1005700096009B689D595B4B98469D4205D0A542CD
:1005800016D0594FEB1B2F2B14D9554B9B689D51FF
:10059000BFF35F8FBFF35F8F0022504B1A608AF367
:1005A000108803B0F0BCBB46B246A946A046F0BDD9
:1005B0001D00EAE7012383409B465A464B4B1B68CC
:1005C0001A4000925A464A4B1A60BFF35F8FFFF7FA
:1005D0004AFE031E01901DD12A0001339A43906800
:1005E000844208D171E04B005B189B00FB189868AF
:1005F000A04245D01A00062151560029F3DA844260
:100600006AD0009B002B34D05A463A4B1A60374BC5
:100610001A60BAE7814530D12A0001239A439068D5
:100620008442E8D1062151561300002940DB4A00DC
:10063000501880003C188046A0689860E079D87116
:1006400006202056987100282FDBA488F81A64052C
:10065000241544440019E0240005400D24022043E1
:1006600098805318244A9B001078FB1898711170D9
:10067000C7E75A461E4B1A6087E700F075FFCBE7C5
:10068000062159560029D2DA0199002910D1FF31EB
:1006900091711A49918018490A789A71184ADB1B9E
:1006A0005B415A43120D0A70ABE7BD200002D7E749
:1006B000144A1549D21A083A5002400D0143998054
:1006C000124952080A43DA809BE70621515613006B
:1006D0000029ACDA4546DEE71300D5E7240100D057
:1006E00000ED00E0CD0100107801002000E100E005
:1006F00080E100E080E200E0290A002000BDFFFF69
:10070000AAAA0000B201002000F0FFFF00F8FFFFDE
:10071000F8B5012504000543FFF7A5FDEFF3108CA4
:1007200072B6214A1368002BFCD0BFF35F8F1F4EB7
:100730002100B7681E4A1F4B891A49414B431B0DC4
:1007400059B28300F858A8421CD00623D3568B42D6
:100750001CD01223D3568B4222D01E23D3568B4259
:1007600020D02A23D35603208B4210D0124B1A7864
:100770001970A271BFF35F8F00220B4B1A608CF3CC
:100780001088F8BDB2680D48D050EFE70020430054
:100790001B189B00D218FF239371094B9380E5E748
:1007A0000120F4E70220F2E7240100D000ED00E090
:1007B00078010020AAAA0000290A0020CD0100101B
:1007C00000BDFFFF054B064A1360064A13605360E5
:1007D0009360D36013615361936170478080808020
:1007E00000E400E004E400E0024B9C466144890020
:1007F000016070474000003483680B4810B58446A0
:10080000614462441201090159189B185C684A68E6
:100810000120944201D802D00020C0B210BD1A6855
:100820000B689A42F9D8F7E7FFFFFF0F0A4B1968E8
:10083000EFF3108072B60A68002AFCD0BFF35F8F16
:100840001B68BFF35F8F00221A6080F3108840BFDF
:10085000002000217047C046140A0020F8B5574612
:1008600045464E46DE46E0B598460CAB1C780DABCF
:100870001B78070091469A460568002C5AD1AC7B3C
:10088000002C3BD0660029683619033E89194B7845
:10089000AB73002B00D1EB7300238B704B700B708C
:1008A0002B4BE218BB6812019B184A461A6042465D
:1008B0005A600A9A9A600B9ADA6000238B704B7028
:1008C0000B706B7B9B46002B27D022006B68594630
:1008D000A86898475B465B005B442A68033B002896
:1008E00012D058469619B070D118D35C002B00D0A6
:1008F00073705B460C706B735C450FD0F0BCBB46ED
:10090000B246A946A046F8BDD3189C709119925DD5
:10091000002A00D05A705B460B706C734A464346FF
:10092000387D00F0EFFA051E0AD10E9B002BE5D0B2
:100930001D70E3E7660029683619033E8919AFE7A1
:100940005346002BF1D12100386800F025FDECE77B
:10095000FFFFFF0FF0B5DE4657464E4645460023E3
:10096000E0B58DB00A936A4B8200D75800239B46AE
:100970000B9000F067FA02000B007868EFF3108923
:1009800072B64D4601680029FCD0A946BFF35F8FBF
:1009900039684E7B8C46002E2ED0BC685D49A2463D
:1009A000711809018A4451460868496804000D001D
:1009B000A41A9D41002D5EDD02000B000B9800F093
:1009C000A1FA002300229A460023089209930023EB
:1009D00098467B68BFF35F8F5A461A6089F3108888
:1009E0004346002B12D10028C3D10DB0F0BCBB464A
:1009F000B246A946A046F0BD002300229A46002335
:100A000008920993002300209846E2E70A9B51468A
:100A100018023043C047069007917A68EFF31085BB
:100A200072B654461368002BFCD0A246BFF35F8F0A
:100A30000699079A002A3BDB114302D03B69002B41
:100A400052D13B68D97B002905D01A68480041186B
:100A50005218033A5670DE73FA68013E935D013313
:100A600093555B463B617B68BFF35F8F5A461A60C4
:100A700085F310887DE7002D01D1002C9CD1002149
:100A8000604600F0F1FB53465C681B6808930994CC
:100A900053469B6898465346DB689A46FB689B1909
:100AA000013B1B780A931B0203433B61002090E744
:100AB0003B69002BC5D0089B099C5B1A94410898A0
:100AC00009991A002300A14219D899421BD000218C
:100AD000049101310391514601914146380002963B
:100AE0000091FFF7BBFEBCE700F0ACF9069A079B4C
:100AF00012184B41994202D8E9D19042E7D901221C
:100B00005242D317E3E708999142E0D9F7E7C0468C
:100B1000000A0020FFFFFF0FF8B557464E46454636
:100B2000DE46E0B53E4D824689466A68EFF310889E
:100B300072B61368002BFCD0BFF35F8F2E68B47BB6
:100B4000002C48D0670033683F19033FDB195A78FF
:100B5000B273002A00D1F273324AA118AA680901BF
:100B6000521851461160494651602F499160002149
:100B7000D160997059701970737B9B46002B41D0DE
:100B8000220073685946B06898475B465B005B4437
:100B90003268033B00282CD05846D719B870D118BA
:100BA000D35C002B00D07B705B460C7073735C458C
:100BB00029D00026EB681B19013B19786B68BFF33D
:100BC0005F8F00221A6088F310880020002E0AD15F
:100BD0000802204307E06B68BFF35F8F1C6088F357
:100BE000108801204042F0BCBB46B246A946A04650
:100BF000F8BDD3189C70D119D25D002A00D05A706C
:100C00005B460B70747352464B46287D00F07AF9B0
:100C1000061ECED02100286800F0BEFBCAE7C04601
:100C2000C0010020FFFFFF0F2D08001010B5124C6F
:100C30006368002B04D00A211048FFF7D5FD10BDD2
:100C400023000F4A1021206800F014FA032000F05E
:100C5000EDF8032000F0C4F903200A4900F00CF974
:100C6000FFF720FC084B9C46032360442375074B89
:100C700080006060DC60DEE7C0010020140A002014
:100C8000F90700105509001040000034000A002048
:100C9000F0B504000D0006267642F717C646361951
:100CA0006F4100B58F4213D810D000F0CBF832005E
:100CB0003B00121A8B41002B14DC002B37D029008B
:100CC000200000F0C9F880BCB846F0BD8642ECD9DF
:100CD0000026002700F0B6F832003B00121A8B41C4
:100CE000002BEADD30003900FFF716FF0028E6DBB5
:100CF00000239846BC460F4A0F4F7B6A9C4504D898
:100D0000B96AB142DBD29C45D9D11168EFF31080AA
:100D100072B60B68002BFCD0BFF35F8F1368BFF374
:100D20005F8F4146196080F3108820BFE5E7002AF5
:100D3000C5D0D7E7140A00200040054070B5060072
:100D400000F080F8FA2204000D000023300000219A
:100D5000920000F0BBFE001969418D4205D802D017
:100D6000FFF796FF70BD8442FAD901204042C117B7
:100D7000F6E7C046F0B5D6464F464646C0B5EFF357
:100D800005823F23134018001038EFF3108C72B621
:100D900020490A68002AFCD0BFF35F8F01221700A8
:100DA00087401D4C1600A24667631C4C2578A04660
:100DB0002C00C4402640224215D05246566A184A9A
:100DC0008400A258964218D34246164BBD43E358BE
:100DD0001570BFF35F8F00220A608CF31088002B20
:100DE00006D0984704E0BFF35F8F0E608CF3108845
:100DF000E0BCBA46B146A846F0BD0B4A9B009046FF
:100E000043441A681A60BFF35F8F00230B608CF3B2
:100E10001088EDE7280100D0004005402A0A002094
:100E2000180A00208C090020D03F054010B5034B64
:100E300001001800024AFFF7FDFA10BD280A002041
:100E4000C81F0010034B596A0A00986A596A8A42FF
:100E5000FAD1704700400540064A536A9942FCD8CF
:100E600007D1044B02E05A6A914202D19A6A824247
:100E7000F9D370470040054070B504000D00EFF352
:100E8000108672B61A4A1368002BFCD0BFF35F8F2E
:100E9000002D1BD02000FFF723FB164981420AD00A
:100EA0002000FFF725FB01212000FFF707FB0123AE
:100EB000A340114A1360114BA400E550BFF35F8FAC
:100EC00000220B4B1A6086F3108870BD0121A140EF
:100ED0000A4BA200D5500A4B20001A788A430549D4
:100EE0001A70FFF72FFB00212000FFF7E7FAE5E774
:100EF000280100D0750D0010386005408C090020D5
:100F00002A0A0020F0B54F46D6464646C0B507002F
:100F10002E4C616A0D00A66A616AA942FAD18B4221
:100F200008D805D00120E0BCBA46B146A846F0BDBD
:100F3000B242F7D9EFF3108A72B62548016800294A
:100F4000FCD0BFF35F8F0125BD4022491F4C88466E
:100F5000097889462943C9B28C46414660460870E3
:100F6000391D890065630A511B49B8004350216A45
:100F70000020294219D0616A0800A66A616A81428C
:100F8000FAD18B4219D801D1B24216D8CC450BD038
:100F90000E4B1F221D625D6301233A4093400F4AAE
:100FA000136043464A461A700120BFF35F8F002248
:100FB000074B1A608AF31088B5E70020BFF35F8FF4
:100FC0000022034B1A608AF31088ACE7004005400A
:100FD000280100D02A0A0020180A002080E200E040
:100FE000EFF3108C72B60A490B68002BFCD0BFF3EC
:100FF0005F8F01238340074A0748136202789A43B0
:101000000270BFF35F8F00230B608CF31088704772
:10101000280100D0004005402A0A002070B50600D3
:101020000D00140000291DD0002A12D073688068BA
:10103000984762006B0012195B193168033A033B51
:10104000002808D08A189570C818CB5C002B0BD1EB
:101050000470280070BDCB189C7088188A5C002A28
:1010600005D105702000F5E753700470F1E75A7060
:101070000570F7E710B583600023CCB243730133EA
:10108000426004738373C4730068421C012C05D949
:101090000133DBB2137003329C42F9D1FF230B40C2
:1010A0005A00D318C01800230338437010BDC0463F
:1010B00070B505000C1E07D0630001681B19033BC7
:1010C000CB185A78002A01D1200070BD500080183A
:1010D0000338091800204E78487021005870280005
:1010E000FFF79CFF310004002800FFF7E1FF060036
:1010F000002C20D00028E7D0320021006B68A868BF
:1011000098477200630092191B192968033A033B40
:10111000002808D08A189470C818CB5C002B00D027
:1011200053700670D0E7CB189E7088188A5C002A2E
:1011300000D05A7004703400C6E7C046F8B5574670
:101140004E464546DE464C00E0B56418170002687E
:10115000033C0500105D13190E009C46002852D078
:10116000430098461B18033BD31859788A46002938
:1011700019D1002F0CD0EC7B002C50D063001B1930
:10118000D318033B5E70EE734346191803395318A6
:1011900000229A70002362465370F0BCBB46B246F0
:1011A000A946A046F8BD4900514403395218517868
:1011B0008846002151708946597052460100280026
:1011C000FFF72CFF43468246002B07D05B002968BF
:1011D0004344033BCB185A78002A2CD1514642464F
:1011E0002800FFF71BFF0100002F1AD0A4462A6831
:1011F000EF7B9444002F04D07B00DB19D318033B12
:101200005E70EE7310E0002FC4D0E97B002910D08F
:101210004B005B18D318033B5E70EE73BAE7EE73B6
:10122000B6E7A4462A6894440029B3D04B009846F8
:10123000AAE7EE73AEE75000801803380918487823
:10124000834648464870587041462800FFF7E6FE3E
:10125000594680462800FFF72BFF41460200280030
:10126000FFF7DCFE8046B9E7F8B557464E464546DF
:10127000DE46E0B5467B02687500AD19033D0F0000
:10128000515D531904009C46002953D04B009846E9
:101290005B18033BD3185878824600281BD1002FD7
:1012A0000CD0E57B002D51D06B005B19D318033BAC
:1012B0005E70E673434658180338131800229A707C
:1012C00000236246300053706173F0BCBB46B246E7
:1012D000A946A046F8BD4000504403381218507883
:1012E0008046002050708146587052462000FFF71B
:1012F00095FE43468246002B07D05B00216843449D
:10130000033BCB185A78002A2CD151464246200084
:10131000FFF784FE0100002F1AD0AC462268E77B5D
:101320009444002F04D07B00DB19D318033B5E707C
:10133000E67310E0002FC3D0C07B002810D043001C
:101340001B18D318033B5E70E673B9E7E673B5E785
:10135000AC46226894440028B2D043009846A9E7DE
:10136000E673ADE7500080180338091848788346C3
:1013700048464870587041462000FFF74FFE5946D6
:1013800080462000FFF794FE414602002000FFF750
:1013900045FE8046B9E7C04670B5050000292CD04F
:1013A000437B8B422ED04C0000686418033C041928
:1013B000A278002A21D053009B18033BC25CC618B8
:1013C0008A4202D11BE0002A08D053009B18033B3D
:1013D000C3185A788A42F6D162785A7000230122E3
:1013E0002800A3706370FFF7A9FE697B0200280044
:1013F000FFF714FE6873012000E0002070BD6378E1
:101400003370EBE701221900FFF798FEF2E7C046C0
:1014100010B50400FFF746F801002000FFF7E4F9DB
:10142000FF232371BFF35F8F10BDC04610B50400CA
:10143000FFF738F801002000FFF7D6F9FF23A3805B
:10144000BFF35F8F10BDC0462B4B2C4A70B51A609E
:101450002B4A2C4B2C491A6014008B689C43FBD1FF
:101460002A4D2B4EB54208D2013E761BB60808CD58
:10147000984723000134B342F9D100F07BF8254AA4
:10148000204B1A60204A9368DB43DB01DD09002B07
:10149000F9D14022204B214E214C9A675A671A6796
:1014A000DA66B44208D2236820000834002B1FD02B
:1014B000FFF7BCFFB442F6D31A4C1B4EC022B168F2
:1014C000200000F097FBB460FEF7DEFFFFF77AF92B
:1014D000FFF7ACFB154C164EB44208D2013E361B4A
:1014E000B60808CC98472B0001359E42F9D170BD53
:1014F000FFF78EFFD5E7C04600E00040BFCDFBFE02
:10150000FE7F3C0000F0004000C000404406002088
:1015100054060020FFFFFF0100F0014044060020B8
:101520003C0600200000002000ED00E054060020F2
:101530005C06002000BEFDE70FB400B5084883B08C
:1015400000F0FAFB049B002B07D005A918000191BD
:1015500000F0E2F9034800F0EFFB00BEFDE7C046F3
:10156000EC1F0010FC1F001010B50148FFF7E4FF4E
:101570000020001010B50C2082B000F0A9F9FEF791
:101580007BFF002810D0864B86488649864A186023
:1015900059609860D960186159619861D961186281
:1015A00059625A6202B010BD804CA06700F098F9F1
:1015B00001227F4B1A60636C012BFCD103227D4B0F
:1015C0001A607A4A936B012BFCD1013301217A4ACC
:1015D0007A480093043300F027F90523784A0093F2
:1015E0000121784800F020F9774B5A68FF2A02D889
:1015F000802252005A6080226E4B694C12011A60A0
:101600002169002905D0606900F0D8F9013001385E
:10161000FDD1E0226C4B6D4819680A40026002223D
:101620001968514001320A40042102609A6811424F
:10163000FCD08021664A09011160802252005A6064
:10164000644B2361644B5968FF2900D85A60032218
:101650000121574B1A60604A93681942FCD0E0237D
:10166000106803405D480360126803234A4002216A
:101670001340594A036093681942FCD08021584BAB
:10168000090119608021574B490051606361564B35
:101690005A68FF2A00D859608022544B12011A6000
:1016A000E169002905D0606900F088F9013001384E
:1016B000FDD1E0234C4A11680B404D490B6080215D
:1016C0004C4B090119608021364B49005160E361A0
:1016D000494B5A68FF2A00D859608022474B1201B3
:1016E0001A60216A002905D0606900F067F90130AD
:1016F0000138FDD1E023404A11680B4040490B609E
:101700008021404B0901196080235B0053608022D7
:10171000244BD20223623C4B5968914200D25A605A
:1017200080223A4B12011A60616A002905D0606973
:1017300000F044F901300138FDD1E023324A11684C
:101740000B4033490B608021324B09011960802323
:10175000DB025360144B63622F4B5A68FF2A02D896
:10176000802252005A6080222C4B12011A60A1691B
:10177000002905D0606900F021F901300138FDD160
:10178000E023254A11680B4025490B608021254B39
:101790000901196080235B005360124BA36101E7CC
:1017A00060060020006CDC021BB7000000800040D7
:1017B0003CB0004030B00040002F6859008002402B
:1017C000008C864700C002403080004030900040CE
:1017D00030A00040001BB7003C8000403C9000401F
:1017E0003CA00040405973075480004054B0004072
:1017F0005490004054A000406080004060B0004021
:101800006090004060A000406C8000406CB00040E0
:101810006C9000406CA000404880004048B0004000
:101820004890004048A00040F8B504000C20170084
:101830001D000E0000F0C2F843011B1A9901C91ADD
:10184000C90009188901380000F0B8F8069B29047E
:101850001B0319432368002B20DB194B194DE31898
:101860005A4253418022520194461B03164A634454
:101870001360164A13601F00AA689743FBD1C02368
:10188000221D9B01134321222660A0601A6022685A
:10189000002AFCDA0822E1601A60F8BD3F232268C2
:1018A0001340B342D9D1A3681B051B0D8342D4D189
:1018B000EE22E368D20213408B42CED1EDE7C04660
:1018C0000040FDBF00C0004000E0004000F00040CC
:1018D0008023024A9B000343D36270470080054087
:1018E000AA23064A1B0113602F230549D360054B29
:1018F00019605368002BFCDA7047C0460040024074
:1019000000B0FA000060024010B5002800D110BD00
:1019100000F0C0F9FBE7C04610B5094A030014689F
:1019200084B0002C08D0012200910648524203A93D
:10193000A047012004B010BD00F0FEF90020F9E737
:10194000E40900200919001001480421014B18473F
:10195000F001002079190010142310B50100188837
:1019600004331B88984710BD162310B50100188852
:1019700002331B88984710BDF8B54746CE4680B560
:101980000F1E19D0142399460433040000250126A4
:1019900098464B461888434621681B88984701C4DF
:1019A000431E9841013540420640AF42F1D130001C
:1019B000C0BCB946B046F8BD0126F8E7114A936F9E
:1019C0009B0813D210665166002905D0FFE7FFE798
:1019D000FFE7516F106F704704B5002801D0002059
:1019E000C04300F0D9FA002104BDC046F0B5146E22
:1019F000556E576F166FFFF7E5FF1466556657670C
:101A00001667F0BD000000D0132370B51D78012DBE
:101A100015D010DD1D48FFF7A7FF1D4C01008022E7
:101A2000200000F0E7F8022D2DD01A48FFF794FFB0
:101A3000194B186070BD194B154CA364F5E7174B93
:101A4000134C23606360A360E36023616361A3615F
:101A5000E36123626362A362E36223636363A3635C
:101A6000E36323646364A364E36423656365A3653C
:101A7000E36523666366A366E36623676367A3671C
:101A8000E367A364D1E7054BA364CEE753440000AA
:101A9000880700204C330000100A0020A11A001013
:101AA00007B5604601880A0A0230DF2AFAD1C9B2B6
:101AB000820804D3028840880004104300E00068D4
:101AC000014A5050039007BD88070020514343430B
:101AD000C9188C46110C83B24B4310B4040C6143FB
:101AE00092B280B2504362431C041B0C001910BC1C
:101AF00059411304120CC018514161447047000051
:101B00004840414048400E4B5B6818470C4B1B68EF
:101B100018470C4A936F9B0802D2094BDB681847A1
:101B2000F0B5146E556E576F166FFFF7F6FF054A46
:101B30001466556657671667F0BD014B9B681847DA
:101B400088080020000000D0014B5B6A18470000A5
:101B500088080020132310B512481C78FFF704FFF3
:101B60000100012C0AD003DD80220F4800F042F86A
:101B70000E48FFF7F1FE0E4B186010BD0A4C5422C0
:101B8000200000F037F80B4B6365A365E36523661F
:101B90006366A366E36623676367A367E3672362FD
:101BA000E361E5E753460000880800204C3300005D
:101BB000100A0020B91B001007B5604601880A0A08
:101BC0000230DF2AFAD1C9B2820804D302884088E1
:101BD0000004104300E00068014A5050039007BD24
:101BE0008808002001480421014B1847000200200A
:101BF00079190010014B5B681847000000020020B3
:101C0000F0B5C64600B5437C07000D001600002B5A
:101C100038D0002A2EDD00216A1E90466A5C037CC3
:101C20004C1C00200A2A0CD0A64216D043461B5D4D
:101C300021000D3B5A4253416A5CDBB24C1C0A2A1C
:101C4000F2D1002BF0D1814217DC022110483B6811
:101C50009847A64207D02000E8E7864203DD311A04
:101C60003B6828189847AD19013D2B780D3B5A4227
:101C700053413B7480BCB846F0BD091A3B68281834
:101C80009847E2E70368110028009847F2E7C0464A
:101C900068200010F0B5CE46474680B583B06B464D
:101CA000DE1CD02330701B061C68204B804601A927
:101CB0001800994600F078F9071E20D01C4B1C68CC
:101CC000002C29D01B4D02E0E468002C0FD02368C3
:101CD000002BF9D02B68002B01D0A342F4D12000B7
:101CE00001223100FFF78CFFE468002CEFD1002FB8
:101CF00012D1404603B0C0BCB946B046F0BD019B0E
:101D000064B29C420CD0484600F056F9084B1C685F
:101D1000002C01D00127D5E7484600F035F9E8E767
:101D2000034B1C68002CCDD1E3E7C0463C060020E5
:101D3000DC090020E0090020F0B5DE4645464E46AD
:101D40005746E0B583B0060000F086F8D0231B06A6
:101D50001C68304B050001A918009B4600F024F9CF
:101D6000804600283DD02C4B1C689A46002C47D05A
:101D70000A232A4F994602E0E468002C17D0236812
:101D8000002BF9D03B68002B01D0A342F4D12000F6
:101D90002A003100FFF734FF6B464A4620001A71D3
:101DA00001A90122FFF72CFFE468002CE7D143468C
:101DB000002B25D153461C68002C06D06368002BED
:101DC0000BD09847E468002CF8D1280003B0F0BC91
:101DD000BB46B246A946A046F0BDE468002CEDD152
:101DE000F3E7019B64B29C420ED0584600F0E4F841
:101DF000094B1C689A46002C02D001239846B7E78D
:101E0000584600F0C1F8D5E7034B1C689A46002CF1
:101E1000AED1DAE73C060020DC090020E009002012
:101E200010B5010000230022002000F043F810BD8F
:101E300070B5074C074D641BA41005D0013CA300EE
:101E4000EB589847002CF9D100F09AF870BDC046C5
:101E50005C0600205C06002010B583070AD0030052
:101E6000032102E001330B4205D01A78002AF9D190
:101E7000181A10BD030019680C4A0D4C8A188A43C1
:101E800022420FD15968094A04338A188A432242F0
:101E900008D15968054A04338A188A432242F1D08E
:101EA00000E001331A78002AFBD1E1E7FFFEFEFED5
:101EB00080808080F0B5D6464F4646469846264BF1
:101EC000C0B50600186891469A460F0000F054F815
:101ED000A422224B52001B689D58002D32D053463D
:101EE0006C6818681F2C32DC002E0CD1631C023485
:101EF000A4006B60675100F041F80020E0BCBA46D6
:101F0000B146A846F0BD49468822A300EB18995077
:101F1000C42149008C46AC446146873AA240096816
:101F200091461143624611608421424649005A504D
:101F3000022EDBD129004A468D31FF310B68134355
:101F40000B60D3E71D004D35FF359D50C7E700F00E
:101F500015F801204042D1E7380600206C2000101F
:101F6000034B10B5002B02D00248FFF759FF10BDFC
:101F700000000000311E00107047C0467047C04688
:101F8000F8B5C0460000000001B40248844601BC18
:101F9000604700BF4901002001B40248844601BCEB
:101FA000604700BF7101002001B40248844601BCB3
:101FB000604700BF0901002001B40248844601BC0B
:081FC000604700BFC1000020D2
:101FC800486172647761726520616C61726D202569
:101FD8006420616C726561647920636C61696D6508
:101FE800640000000A2A2A2A2050414E4943202A28
:101FF8002A2A0A000A00000048617264206173738B
:102008006572740052656C6561736500626F6F7408
:10201800325F77323571303830000000312E342E7F
:10202800300000007069636F000000006573630092
:102038004465632020382032303232000600525086
:10204800D3F075420C20001006005250E182887FC0
:102058001420001006005250BBFF3CB62C20001084
:082068000D0A00001002002027
:102070004420001050200010900200105C2000103E
:0C2080009C020010A8020010B402001026
:10208C00D02330B500251B0600245D5706E00368FD
:10209C00BFF35F8F1C6081F3108820BF0268EFF3E1
:1020AC00108172B61368002BFCD0BFF35F8F0379DD
:1020BC007F2BECD905710368BFF35F8F00221A6088
:1020CC0081F3108830BDC04603000068EFF3108C1C
:1020DC0072B60268002AFCD0BFF35F8F04229A56B6
:1020EC00002A04DB002900D00A60002004E0D02282
:1020FC000120120612681A711B68BFF35F8F002251
:10210C001A608CF3108870470268EFF3108172B676
:10211C001368002BFCD0BFF35F8FFF2303710368A0
:10212C00BFF35F8F00221A6081F3108840BF7047A5
:10213C007047C046100000000000000000000100C5
:10214C000000000000000000000002000000000081
:10215C000000000000000300000000000000000070
:10216C000000FF000000000000B5486801318E46F9
:10217C000047704609380149884700BD1107001017
:10218C00D801002000000000880600209C090020D7
:10219C000000000000000000AC090020000000005E
:1021AC000000000010000000000000000000000013
:1021BC00503300004C330000543300005233000005
:1021CC004D5300004D4300005334000043340000D5
:1021DC0000000000FC04002064050020CC05002059
:1021EC0000000000000000000000000000000000E3
:1021FC0000000000000000000000000000000000D3
:10220C0000000000000000000000000000000000C2
:10221C0000000000000000000000000000000000B2
:10222C0000000000000000000000000000000000A2
:10223C000000000000000000000000000000000092
:10224C000000000000000000000000000000000082
:10225C000000000000000000000000000000000072
:10226C000000000000000000000000000000000062
:10227C000000000000000000010000000000000051
:10228C000E33CDAB34126DE6ECDE05000B00000016
:10229C000000000000000000000000000000000032
:1022AC000000000000000000000000000000000022
:1022BC000000000000000000000000000000000012
:1022CC000000000000000000000000000000000002
:1025FC00000000000000000088090020000000001E
:10260C0000000000E51B001049190010091A001009
:0C261C00551B0010611F0010C5020010CB
:04000005100001E9FD
:00000001FF
